{
  "_format": "hh-sol-artifact-1",
  "contractName": "Escrow",
  "sourceName": "contracts/Escrow.sol",
  "abi": [
    {
      "anonymous": false,
      "inputs": [
        {
          "indexed": false,
          "internalType": "uint256",
          "name": "id",
          "type": "uint256"
        }
      ],
      "name": "EscrowApproved",
      "type": "event"
    },
    {
      "inputs": [
        {
          "internalType": "uint256",
          "name": "_id",
          "type": "uint256"
        }
      ],
      "name": "approveEscrow",
      "outputs": [],
      "stateMutability": "payable",
      "type": "function"
    },
    {
      "inputs": [
        {
          "internalType": "uint256",
          "name": "timestamp",
          "type": "uint256"
        }
      ],
      "name": "convertTimestampUTC",
      "outputs": [
        {
          "internalType": "uint256",
          "name": "year",
          "type": "uint256"
        },
        {
          "internalType": "uint256",
          "name": "month",
          "type": "uint256"
        },
        {
          "internalType": "uint256",
          "name": "day",
          "type": "uint256"
        },
        {
          "internalType": "uint256",
          "name": "hour",
          "type": "uint256"
        },
        {
          "internalType": "uint256",
          "name": "minute",
          "type": "uint256"
        },
        {
          "internalType": "uint256",
          "name": "second",
          "type": "uint256"
        }
      ],
      "stateMutability": "pure",
      "type": "function"
    },
    {
      "inputs": [
        {
          "internalType": "uint256",
          "name": "_id",
          "type": "uint256"
        }
      ],
      "name": "getEscrowById1",
      "outputs": [
        {
          "internalType": "uint256",
          "name": "id",
          "type": "uint256"
        },
        {
          "internalType": "address",
          "name": "depositor",
          "type": "address"
        },
        {
          "internalType": "address",
          "name": "arbiter",
          "type": "address"
        },
        {
          "internalType": "address",
          "name": "beneficiary",
          "type": "address"
        },
        {
          "internalType": "uint256",
          "name": "amount",
          "type": "uint256"
        },
        {
          "internalType": "bool",
          "name": "isApproved",
          "type": "bool"
        }
      ],
      "stateMutability": "view",
      "type": "function"
    },
    {
      "inputs": [
        {
          "internalType": "uint256",
          "name": "_id",
          "type": "uint256"
        }
      ],
      "name": "getEscrowById2",
      "outputs": [
        {
          "internalType": "uint256",
          "name": "id",
          "type": "uint256"
        },
        {
          "internalType": "address",
          "name": "depositor",
          "type": "address"
        },
        {
          "internalType": "address",
          "name": "arbiter",
          "type": "address"
        },
        {
          "internalType": "address",
          "name": "beneficiary",
          "type": "address"
        },
        {
          "internalType": "uint256",
          "name": "amount",
          "type": "uint256"
        },
        {
          "internalType": "bool",
          "name": "isApproved",
          "type": "bool"
        }
      ],
      "stateMutability": "view",
      "type": "function"
    },
    {
      "inputs": [
        {
          "internalType": "uint256",
          "name": "_id",
          "type": "uint256"
        }
      ],
      "name": "getEscrowById3",
      "outputs": [
        {
          "components": [
            {
              "internalType": "uint256",
              "name": "id",
              "type": "uint256"
            },
            {
              "internalType": "address",
              "name": "depositor",
              "type": "address"
            },
            {
              "internalType": "address",
              "name": "arbiter",
              "type": "address"
            },
            {
              "internalType": "address",
              "name": "beneficiary",
              "type": "address"
            },
            {
              "internalType": "uint256",
              "name": "amount",
              "type": "uint256"
            },
            {
              "internalType": "uint256",
              "name": "timestamp",
              "type": "uint256"
            },
            {
              "internalType": "bool",
              "name": "isApproved",
              "type": "bool"
            }
          ],
          "internalType": "struct Escrow.Transaction",
          "name": "",
          "type": "tuple"
        }
      ],
      "stateMutability": "view",
      "type": "function"
    },
    {
      "inputs": [
        {
          "internalType": "uint256",
          "name": "_id",
          "type": "uint256"
        }
      ],
      "name": "getEscrowById4",
      "outputs": [
        {
          "components": [
            {
              "internalType": "uint256",
              "name": "id",
              "type": "uint256"
            },
            {
              "internalType": "address",
              "name": "depositor",
              "type": "address"
            },
            {
              "internalType": "address",
              "name": "arbiter",
              "type": "address"
            },
            {
              "internalType": "address",
              "name": "beneficiary",
              "type": "address"
            },
            {
              "internalType": "uint256",
              "name": "amount",
              "type": "uint256"
            },
            {
              "internalType": "uint256",
              "name": "timestamp",
              "type": "uint256"
            },
            {
              "internalType": "bool",
              "name": "isApproved",
              "type": "bool"
            }
          ],
          "internalType": "struct Escrow.Transaction",
          "name": "transaction",
          "type": "tuple"
        }
      ],
      "stateMutability": "view",
      "type": "function"
    },
    {
      "inputs": [],
      "name": "getFullListEscrows",
      "outputs": [
        {
          "components": [
            {
              "internalType": "uint256",
              "name": "id",
              "type": "uint256"
            },
            {
              "internalType": "address",
              "name": "depositor",
              "type": "address"
            },
            {
              "internalType": "address",
              "name": "arbiter",
              "type": "address"
            },
            {
              "internalType": "address",
              "name": "beneficiary",
              "type": "address"
            },
            {
              "internalType": "uint256",
              "name": "amount",
              "type": "uint256"
            },
            {
              "internalType": "uint256",
              "name": "timestamp",
              "type": "uint256"
            },
            {
              "internalType": "bool",
              "name": "isApproved",
              "type": "bool"
            }
          ],
          "internalType": "struct Escrow.Transaction[]",
          "name": "",
          "type": "tuple[]"
        }
      ],
      "stateMutability": "view",
      "type": "function"
    },
    {
      "inputs": [],
      "name": "getListEscrowToApprove",
      "outputs": [
        {
          "components": [
            {
              "internalType": "uint256",
              "name": "id",
              "type": "uint256"
            },
            {
              "internalType": "address",
              "name": "depositor",
              "type": "address"
            },
            {
              "internalType": "address",
              "name": "arbiter",
              "type": "address"
            },
            {
              "internalType": "address",
              "name": "beneficiary",
              "type": "address"
            },
            {
              "internalType": "uint256",
              "name": "amount",
              "type": "uint256"
            },
            {
              "internalType": "uint256",
              "name": "timestamp",
              "type": "uint256"
            },
            {
              "internalType": "bool",
              "name": "isApproved",
              "type": "bool"
            }
          ],
          "internalType": "struct Escrow.Transaction[]",
          "name": "",
          "type": "tuple[]"
        }
      ],
      "stateMutability": "view",
      "type": "function"
    },
    {
      "inputs": [],
      "name": "getMyEscrowBalance",
      "outputs": [
        {
          "internalType": "uint256",
          "name": "balance",
          "type": "uint256"
        }
      ],
      "stateMutability": "view",
      "type": "function"
    },
    {
      "inputs": [],
      "name": "getMyListEscrows1",
      "outputs": [
        {
          "components": [
            {
              "internalType": "uint256",
              "name": "id",
              "type": "uint256"
            },
            {
              "internalType": "address",
              "name": "depositor",
              "type": "address"
            },
            {
              "internalType": "address",
              "name": "arbiter",
              "type": "address"
            },
            {
              "internalType": "address",
              "name": "beneficiary",
              "type": "address"
            },
            {
              "internalType": "uint256",
              "name": "amount",
              "type": "uint256"
            },
            {
              "internalType": "uint256",
              "name": "timestamp",
              "type": "uint256"
            },
            {
              "internalType": "bool",
              "name": "isApproved",
              "type": "bool"
            }
          ],
          "internalType": "struct Escrow.Transaction[]",
          "name": "",
          "type": "tuple[]"
        }
      ],
      "stateMutability": "view",
      "type": "function"
    },
    {
      "inputs": [],
      "name": "getTimeStampsOfAllEscrows1",
      "outputs": [
        {
          "internalType": "uint256[]",
          "name": "",
          "type": "uint256[]"
        }
      ],
      "stateMutability": "view",
      "type": "function"
    },
    {
      "inputs": [],
      "name": "getTotalBalanceOfAllEscrows",
      "outputs": [
        {
          "internalType": "uint256",
          "name": "",
          "type": "uint256"
        }
      ],
      "stateMutability": "view",
      "type": "function"
    },
    {
      "inputs": [
        {
          "internalType": "address",
          "name": "_arbiter",
          "type": "address"
        },
        {
          "internalType": "address",
          "name": "_beneficiary",
          "type": "address"
        }
      ],
      "name": "newEscrow",
      "outputs": [],
      "stateMutability": "payable",
      "type": "function"
    },
    {
      "inputs": [
        {
          "internalType": "uint256",
          "name": "",
          "type": "uint256"
        }
      ],
      "name": "transactions",
      "outputs": [
        {
          "internalType": "uint256",
          "name": "id",
          "type": "uint256"
        },
        {
          "internalType": "address",
          "name": "depositor",
          "type": "address"
        },
        {
          "internalType": "address",
          "name": "arbiter",
          "type": "address"
        },
        {
          "internalType": "address",
          "name": "beneficiary",
          "type": "address"
        },
        {
          "internalType": "uint256",
          "name": "amount",
          "type": "uint256"
        },
        {
          "internalType": "uint256",
          "name": "timestamp",
          "type": "uint256"
        },
        {
          "internalType": "bool",
          "name": "isApproved",
          "type": "bool"
        }
      ],
      "stateMutability": "view",
      "type": "function"
    }
  ],
  "bytecode": "0x60806040526040518060e0016040528060008152602001600073ffffffffffffffffffffffffffffffffffffffff168152602001600073ffffffffffffffffffffffffffffffffffffffff168152602001600073ffffffffffffffffffffffffffffffffffffffff16815260200160008152602001600081526020016000151581525060016000820151816000015560208201518160010160006101000a81548173ffffffffffffffffffffffffffffffffffffffff021916908373ffffffffffffffffffffffffffffffffffffffff16021790555060408201518160020160006101000a81548173ffffffffffffffffffffffffffffffffffffffff021916908373ffffffffffffffffffffffffffffffffffffffff16021790555060608201518160030160006101000a81548173ffffffffffffffffffffffffffffffffffffffff021916908373ffffffffffffffffffffffffffffffffffffffff1602179055506080820151816004015560a0820151816005015560c08201518160060160006101000a81548160ff02191690831515021790555050503480156101a557600080fd5b50612a21806101b56000396000f3fe6080604052600436106100dd5760003560e01c80638344187a1161007f578063a27febfd11610059578063a27febfd146102eb578063b08297421461032d578063d4eac44614610358578063f13b15f414610374576100dd565b80638344187a1461023b5780639562f44d146102665780639ace38c2146102a8576100dd565b806310f7aa55116100bb57806310f7aa55146101665780631c09d5e614610191578063670d1aa6146101d357806380b6065014610210576100dd565b806303fce7ef146100e257806306ac3249146100fe57806307d74fc614610129575b600080fd5b6100fc60048036038101906100f791906120fc565b61039f565b005b34801561010a57600080fd5b5061011361079c565b60405161012091906122d1565b60405180910390f35b34801561013557600080fd5b50610150600480360381019061014b91906120fc565b610add565b60405161015d9190612381565b60405180910390f35b34801561017257600080fd5b5061017b610df5565b60405161018891906123ab565b60405180910390f35b34801561019d57600080fd5b506101b860048036038101906101b391906120fc565b610e88565b6040516101ca969594939291906123c6565b60405180910390f35b3480156101df57600080fd5b506101fa60048036038101906101f591906120fc565b610eaf565b6040516102079190612381565b60405180910390f35b34801561021c57600080fd5b50610225611077565b60405161023291906122d1565b60405180910390f35b34801561024757600080fd5b50610250611430565b60405161025d91906124d6565b60405180910390f35b34801561027257600080fd5b5061028d600480360381019061028891906120fc565b6115f0565b60405161029f96959493929190612516565b60405180910390f35b3480156102b457600080fd5b506102cf60048036038101906102ca91906120fc565b6117a7565b6040516102e29796959493929190612577565b60405180910390f35b3480156102f757600080fd5b50610312600480360381019061030d91906120fc565b611866565b60405161032496959493929190612516565b60405180910390f35b34801561033957600080fd5b50610342611a6e565b60405161034f91906123ab565b60405180910390f35b610372600480360381019061036d9190612612565b611b1c565b005b34801561038057600080fd5b50610389611cfc565b60405161039691906122d1565b60405180910390f35b6103a7612040565b60005b6000805490508110156105615782600082815481106103cc576103cb612652565b5b9060005260206000209060070201600001540361054e57600081815481106103f7576103f6612652565b5b90600052602060002090600702016040518060e0016040529081600082015481526020016001820160009054906101000a900473ffffffffffffffffffffffffffffffffffffffff1673ffffffffffffffffffffffffffffffffffffffff1673ffffffffffffffffffffffffffffffffffffffff1681526020016002820160009054906101000a900473ffffffffffffffffffffffffffffffffffffffff1673ffffffffffffffffffffffffffffffffffffffff1673ffffffffffffffffffffffffffffffffffffffff1681526020016003820160009054906101000a900473ffffffffffffffffffffffffffffffffffffffff1673ffffffffffffffffffffffffffffffffffffffff1673ffffffffffffffffffffffffffffffffffffffff16815260200160048201548152602001600582015481526020016006820160009054906101000a900460ff16151515158152505091505b8080610559906126b0565b9150506103aa565b5060008160800151116105a9576040517f08c379a00000000000000000000000000000000000000000000000000000000081526004016105a09061277b565b60405180910390fd5b3373ffffffffffffffffffffffffffffffffffffffff16816040015173ffffffffffffffffffffffffffffffffffffffff161461061b576040517f08c379a0000000000000000000000000000000000000000000000000000000008152600401610612906127e7565b60405180910390fd5b6000816000015111610662576040517f08c379a000000000000000000000000000000000000000000000000000000000815260040161065990612853565b60405180910390fd5b6000816060015173ffffffffffffffffffffffffffffffffffffffff168260800151604051610690906128a4565b60006040518083038185875af1925050503d80600081146106cd576040519150601f19603f3d011682016040523d82523d6000602084013e6106d2565b606091505b5050905080610716576040517f08c379a000000000000000000000000000000000000000000000000000000000815260040161070d90612905565b60405180910390fd5b600160006001856107279190612925565b8154811061073857610737612652565b5b906000526020600020906007020160060160006101000a81548160ff0219169083151502179055507fce085aa2cda59f2e48fad577fb84f3ead9f0c75383ce0b8e84da3d08076beafd8360405161078f91906123ab565b60405180910390a1505050565b60606000805b600080549050811015610849573373ffffffffffffffffffffffffffffffffffffffff16600082815481106107da576107d9612652565b5b906000526020600020906007020160010160009054906101000a900473ffffffffffffffffffffffffffffffffffffffff1673ffffffffffffffffffffffffffffffffffffffff1603610836578180610832906126b0565b9250505b8080610841906126b0565b9150506107a2565b5060008167ffffffffffffffff81111561086657610865612959565b5b60405190808252806020026020018201604052801561089f57816020015b61088c612040565b8152602001906001900390816108845790505b5090506000805b600080549050811015610ad3573373ffffffffffffffffffffffffffffffffffffffff16600082815481106108de576108dd612652565b5b906000526020600020906007020160010160009054906101000a900473ffffffffffffffffffffffffffffffffffffffff1673ffffffffffffffffffffffffffffffffffffffff1603610ac0576000818154811061093f5761093e612652565b5b90600052602060002090600702016040518060e0016040529081600082015481526020016001820160009054906101000a900473ffffffffffffffffffffffffffffffffffffffff1673ffffffffffffffffffffffffffffffffffffffff1673ffffffffffffffffffffffffffffffffffffffff1681526020016002820160009054906101000a900473ffffffffffffffffffffffffffffffffffffffff1673ffffffffffffffffffffffffffffffffffffffff1673ffffffffffffffffffffffffffffffffffffffff1681526020016003820160009054906101000a900473ffffffffffffffffffffffffffffffffffffffff1673ffffffffffffffffffffffffffffffffffffffff1673ffffffffffffffffffffffffffffffffffffffff16815260200160048201548152602001600582015481526020016006820160009054906101000a900460ff161515151581525050838381518110610aa657610aa5612652565b5b60200260200101819052508180610abc906126b0565b9250505b8080610acb906126b0565b9150506108a6565b5081935050505090565b610ae5612040565b60005b600080549050811015610ca4578260008281548110610b0a57610b09612652565b5b90600052602060002090600702016000015403610c915760008181548110610b3557610b34612652565b5b90600052602060002090600702016040518060e0016040529081600082015481526020016001820160009054906101000a900473ffffffffffffffffffffffffffffffffffffffff1673ffffffffffffffffffffffffffffffffffffffff1673ffffffffffffffffffffffffffffffffffffffff1681526020016002820160009054906101000a900473ffffffffffffffffffffffffffffffffffffffff1673ffffffffffffffffffffffffffffffffffffffff1673ffffffffffffffffffffffffffffffffffffffff1681526020016003820160009054906101000a900473ffffffffffffffffffffffffffffffffffffffff1673ffffffffffffffffffffffffffffffffffffffff1673ffffffffffffffffffffffffffffffffffffffff16815260200160048201548152602001600582015481526020016006820160009054906101000a900460ff161515151581525050915050610df0565b8080610c9c906126b0565b915050610ae8565b5060016040518060e0016040529081600082015481526020016001820160009054906101000a900473ffffffffffffffffffffffffffffffffffffffff1673ffffffffffffffffffffffffffffffffffffffff1673ffffffffffffffffffffffffffffffffffffffff1681526020016002820160009054906101000a900473ffffffffffffffffffffffffffffffffffffffff1673ffffffffffffffffffffffffffffffffffffffff1673ffffffffffffffffffffffffffffffffffffffff1681526020016003820160009054906101000a900473ffffffffffffffffffffffffffffffffffffffff1673ffffffffffffffffffffffffffffffffffffffff1673ffffffffffffffffffffffffffffffffffffffff16815260200160048201548152602001600582015481526020016006820160009054906101000a900460ff16151515158152505090505b919050565b6000806000905060005b600080549050811015610e80576000808281548110610e2157610e20612652565b5b9060005260206000209060070201600401541115610e6d5760008181548110610e4d57610e4c612652565b5b90600052602060002090600702016004015482610e6a9190612988565b91505b8080610e78906126b0565b915050610dff565b508091505090565b600080600080600080610e9a87611e96565b95509550955095509550955091939550919395565b610eb7612040565b60005b600080549050811015611071578260008281548110610edc57610edb612652565b5b9060005260206000209060070201600001540361105e5760008181548110610f0757610f06612652565b5b90600052602060002090600702016040518060e0016040529081600082015481526020016001820160009054906101000a900473ffffffffffffffffffffffffffffffffffffffff1673ffffffffffffffffffffffffffffffffffffffff1673ffffffffffffffffffffffffffffffffffffffff1681526020016002820160009054906101000a900473ffffffffffffffffffffffffffffffffffffffff1673ffffffffffffffffffffffffffffffffffffffff1673ffffffffffffffffffffffffffffffffffffffff1681526020016003820160009054906101000a900473ffffffffffffffffffffffffffffffffffffffff1673ffffffffffffffffffffffffffffffffffffffff1673ffffffffffffffffffffffffffffffffffffffff16815260200160048201548152602001600582015481526020016006820160009054906101000a900460ff16151515158152505091505b8080611069906126b0565b915050610eba565b50919050565b60606000805b6000805490508110156111675760001515600082815481106110a2576110a1612652565b5b906000526020600020906007020160060160009054906101000a900460ff16151514801561114057503373ffffffffffffffffffffffffffffffffffffffff16600082815481106110f6576110f5612652565b5b906000526020600020906007020160020160009054906101000a900473ffffffffffffffffffffffffffffffffffffffff1673ffffffffffffffffffffffffffffffffffffffff16145b15611154578180611150906126b0565b9250505b808061115f906126b0565b91505061107d565b5060008167ffffffffffffffff81111561118457611183612959565b5b6040519080825280602002602001820160405280156111bd57816020015b6111aa612040565b8152602001906001900390816111a25790505b5090506000805b6000805490508110156114265760001515600082815481106111e9576111e8612652565b5b906000526020600020906007020160060160009054906101000a900460ff16151514801561128757503373ffffffffffffffffffffffffffffffffffffffff166000828154811061123d5761123c612652565b5b906000526020600020906007020160020160009054906101000a900473ffffffffffffffffffffffffffffffffffffffff1673ffffffffffffffffffffffffffffffffffffffff16145b1561141357600081815481106112a05761129f612652565b5b90600052602060002090600702016040518060e0016040529081600082015481526020016001820160009054906101000a900473ffffffffffffffffffffffffffffffffffffffff1673ffffffffffffffffffffffffffffffffffffffff1673ffffffffffffffffffffffffffffffffffffffff1681526020016002820160009054906101000a900473ffffffffffffffffffffffffffffffffffffffff1673ffffffffffffffffffffffffffffffffffffffff1673ffffffffffffffffffffffffffffffffffffffff1681526020016003820160009054906101000a900473ffffffffffffffffffffffffffffffffffffffff1673ffffffffffffffffffffffffffffffffffffffff1673ffffffffffffffffffffffffffffffffffffffff16815260200160048201548152602001600582015481526020016006820160009054906101000a900460ff16151515158152505083838151811061140757611406612652565b5b60200260200101819052505b808061141e906126b0565b9150506111c4565b5081935050505090565b60606000805b6000805490508110156114c257600080828154811061145857611457612652565b5b90600052602060002090600702016004015411801561149b5750600080828154811061148757611486612652565b5b906000526020600020906007020160050154115b156114af5781806114ab906126b0565b9250505b80806114ba906126b0565b915050611436565b5060008167ffffffffffffffff8111156114df576114de612959565b5b60405190808252806020026020018201604052801561150d5781602001602082028036833780820191505090505b5090506000805b6000805490508110156115e657600080828154811061153657611535612652565b5b9060005260206000209060070201600401541180156115795750600080828154811061156557611564612652565b5b906000526020600020906007020160050154115b156115d3576000818154811061159257611591612652565b5b9060005260206000209060070201600501548383815181106115b7576115b6612652565b5b6020026020010181815250506001826115d09190612988565b91505b80806115de906126b0565b915050611514565b5081935050505090565b60008060008060008060006001886116089190612925565b8154811061161957611618612652565b5b906000526020600020906007020160000154600060018961163a9190612925565b8154811061164b5761164a612652565b5b906000526020600020906007020160010160009054906101000a900473ffffffffffffffffffffffffffffffffffffffff16600060018a61168c9190612925565b8154811061169d5761169c612652565b5b906000526020600020906007020160020160009054906101000a900473ffffffffffffffffffffffffffffffffffffffff16600060018b6116de9190612925565b815481106116ef576116ee612652565b5b906000526020600020906007020160030160009054906101000a900473ffffffffffffffffffffffffffffffffffffffff16600060018c6117309190612925565b8154811061174157611740612652565b5b906000526020600020906007020160040154600060018d6117629190612925565b8154811061177357611772612652565b5b906000526020600020906007020160060160009054906101000a900460ff1695509550955095509550955091939550919395565b600081815481106117b757600080fd5b90600052602060002090600702016000915090508060000154908060010160009054906101000a900473ffffffffffffffffffffffffffffffffffffffff16908060020160009054906101000a900473ffffffffffffffffffffffffffffffffffffffff16908060030160009054906101000a900473ffffffffffffffffffffffffffffffffffffffff16908060040154908060050154908060060160009054906101000a900460ff16905087565b60008060008060008060005b600080549050811015611a6457876000828154811061189457611893612652565b5b90600052602060002090600702016000015403611a515760006001896118ba9190612925565b815481106118cb576118ca612652565b5b906000526020600020906007020160000154965060006001896118ee9190612925565b815481106118ff576118fe612652565b5b906000526020600020906007020160010160009054906101000a900473ffffffffffffffffffffffffffffffffffffffff16955060006001896119429190612925565b8154811061195357611952612652565b5b906000526020600020906007020160020160009054906101000a900473ffffffffffffffffffffffffffffffffffffffff16945060006001896119969190612925565b815481106119a7576119a6612652565b5b906000526020600020906007020160030160009054906101000a900473ffffffffffffffffffffffffffffffffffffffff16935060006001896119ea9190612925565b815481106119fb576119fa612652565b5b90600052602060002090600702016004015492506000600189611a1e9190612925565b81548110611a2f57611a2e612652565b5b906000526020600020906007020160060160009054906101000a900460ff1691505b8080611a5c906126b0565b915050611872565b5091939550919395565b600080600090505b600080549050811015611b17573373ffffffffffffffffffffffffffffffffffffffff1660008281548110611aae57611aad612652565b5b906000526020600020906007020160010160009054906101000a900473ffffffffffffffffffffffffffffffffffffffff1673ffffffffffffffffffffffffffffffffffffffff1603611b045747915050611b19565b8080611b0f906126b0565b915050611a76565b505b90565b60003411611b2957600080fd5b60006040518060e001604052806001600080549050611b489190612988565b81526020013373ffffffffffffffffffffffffffffffffffffffff1681526020018473ffffffffffffffffffffffffffffffffffffffff1681526020018373ffffffffffffffffffffffffffffffffffffffff16815260200134815260200142815260200160001515815250905060008190806001815401808255809150506001900390600052602060002090600702016000909190919091506000820151816000015560208201518160010160006101000a81548173ffffffffffffffffffffffffffffffffffffffff021916908373ffffffffffffffffffffffffffffffffffffffff16021790555060408201518160020160006101000a81548173ffffffffffffffffffffffffffffffffffffffff021916908373ffffffffffffffffffffffffffffffffffffffff16021790555060608201518160030160006101000a81548173ffffffffffffffffffffffffffffffffffffffff021916908373ffffffffffffffffffffffffffffffffffffffff1602179055506080820151816004015560a0820151816005015560c08201518160060160006101000a81548160ff0219169083151502179055505050505050565b60606000805480602002602001604051908101604052809291908181526020016000905b82821015611e8d57838290600052602060002090600702016040518060e0016040529081600082015481526020016001820160009054906101000a900473ffffffffffffffffffffffffffffffffffffffff1673ffffffffffffffffffffffffffffffffffffffff1673ffffffffffffffffffffffffffffffffffffffff1681526020016002820160009054906101000a900473ffffffffffffffffffffffffffffffffffffffff1673ffffffffffffffffffffffffffffffffffffffff1673ffffffffffffffffffffffffffffffffffffffff1681526020016003820160009054906101000a900473ffffffffffffffffffffffffffffffffffffffff1673ffffffffffffffffffffffffffffffffffffffff1673ffffffffffffffffffffffffffffffffffffffff16815260200160048201548152602001600582015481526020016006820160009054906101000a900460ff16151515158152505081526020019060010190611d20565b50505050905090565b600080600080600080611ebb620151808881611eb557611eb46129bc565b5b04611f3b565b8096508197508298505050506000620151808881611edc57611edb6129bc565b5b069050610e108181611ef157611ef06129bc565b5b049350610e108181611f0657611f056129bc565b5b069050603c8181611f1a57611f196129bc565b5b049250603c8181611f2e57611f2d6129bc565b5b0691505091939550919395565b600080600080849050600062253d8c62010bd98301019050600062023ab18260040281611f6b57611f6a6129bc565b5b059050600460038262023ab1020181611f8757611f866129bc565b5b0582039150600062164b0960018401610fa00281611fa857611fa76129bc565b5b059050601f6004826105b50281611fc257611fc16129bc565b5b058403019250600061098f8460500281611fdf57611fde6129bc565b5b059050600060508261098f0281611ff957611ff86129bc565b5b0585039050600b828161200f5761200e6129bc565b5b05945084600c0260028301039150848360318603606402010192508298508197508096505050505050509193909250565b6040518060e0016040528060008152602001600073ffffffffffffffffffffffffffffffffffffffff168152602001600073ffffffffffffffffffffffffffffffffffffffff168152602001600073ffffffffffffffffffffffffffffffffffffffff16815260200160008152602001600081526020016000151581525090565b600080fd5b6000819050919050565b6120d9816120c6565b81146120e457600080fd5b50565b6000813590506120f6816120d0565b92915050565b600060208284031215612112576121116120c1565b5b6000612120848285016120e7565b91505092915050565b600081519050919050565b600082825260208201905092915050565b6000819050602082019050919050565b61215e816120c6565b82525050565b600073ffffffffffffffffffffffffffffffffffffffff82169050919050565b600061218f82612164565b9050919050565b61219f81612184565b82525050565b60008115159050919050565b6121ba816121a5565b82525050565b60e0820160008201516121d66000850182612155565b5060208201516121e96020850182612196565b5060408201516121fc6040850182612196565b50606082015161220f6060850182612196565b5060808201516122226080850182612155565b5060a082015161223560a0850182612155565b5060c082015161224860c08501826121b1565b50505050565b600061225a83836121c0565b60e08301905092915050565b6000602082019050919050565b600061227e82612129565b6122888185612134565b935061229383612145565b8060005b838110156122c45781516122ab888261224e565b97506122b683612266565b925050600181019050612297565b5085935050505092915050565b600060208201905081810360008301526122eb8184612273565b905092915050565b60e0820160008201516123096000850182612155565b50602082015161231c6020850182612196565b50604082015161232f6040850182612196565b5060608201516123426060850182612196565b5060808201516123556080850182612155565b5060a082015161236860a0850182612155565b5060c082015161237b60c08501826121b1565b50505050565b600060e08201905061239660008301846122f3565b92915050565b6123a5816120c6565b82525050565b60006020820190506123c0600083018461239c565b92915050565b600060c0820190506123db600083018961239c565b6123e8602083018861239c565b6123f5604083018761239c565b612402606083018661239c565b61240f608083018561239c565b61241c60a083018461239c565b979650505050505050565b600081519050919050565b600082825260208201905092915050565b6000819050602082019050919050565b600061245f8383612155565b60208301905092915050565b6000602082019050919050565b600061248382612427565b61248d8185612432565b935061249883612443565b8060005b838110156124c95781516124b08882612453565b97506124bb8361246b565b92505060018101905061249c565b5085935050505092915050565b600060208201905081810360008301526124f08184612478565b905092915050565b61250181612184565b82525050565b612510816121a5565b82525050565b600060c08201905061252b600083018961239c565b61253860208301886124f8565b61254560408301876124f8565b61255260608301866124f8565b61255f608083018561239c565b61256c60a0830184612507565b979650505050505050565b600060e08201905061258c600083018a61239c565b61259960208301896124f8565b6125a660408301886124f8565b6125b360608301876124f8565b6125c0608083018661239c565b6125cd60a083018561239c565b6125da60c0830184612507565b98975050505050505050565b6125ef81612184565b81146125fa57600080fd5b50565b60008135905061260c816125e6565b92915050565b60008060408385031215612629576126286120c1565b5b6000612637858286016125fd565b9250506020612648858286016125fd565b9150509250929050565b7f4e487b7100000000000000000000000000000000000000000000000000000000600052603260045260246000fd5b7f4e487b7100000000000000000000000000000000000000000000000000000000600052601160045260246000fd5b60006126bb826120c6565b91507fffffffffffffffffffffffffffffffffffffffffffffffffffffffffffffffff82036126ed576126ec612681565b5b600182019050919050565b600082825260208201905092915050565b7f457363726f7720646f6573206e6f7420636f6e7461696e20616e792066756e6460008201527f7300000000000000000000000000000000000000000000000000000000000000602082015250565b60006127656021836126f8565b915061277082612709565b604082019050919050565b6000602082019050818103600083015261279481612758565b9050919050565b7f596f752063616e206e6f7420617070726f766520746869730000000000000000600082015250565b60006127d16018836126f8565b91506127dc8261279b565b602082019050919050565b60006020820190508181036000830152612800816127c4565b9050919050565b7f5472616e73616374696f6e20646f6573206e6f74206578697374000000000000600082015250565b600061283d601a836126f8565b915061284882612807565b602082019050919050565b6000602082019050818103600083015261286c81612830565b9050919050565b600081905092915050565b50565b600061288e600083612873565b91506128998261287e565b600082019050919050565b60006128af82612881565b9150819050919050565b7f5472616e73616374696f6e73206661696c656400000000000000000000000000600082015250565b60006128ef6013836126f8565b91506128fa826128b9565b602082019050919050565b6000602082019050818103600083015261291e816128e2565b9050919050565b6000612930826120c6565b915061293b836120c6565b925082820390508181111561295357612952612681565b5b92915050565b7f4e487b7100000000000000000000000000000000000000000000000000000000600052604160045260246000fd5b6000612993826120c6565b915061299e836120c6565b92508282019050808211156129b6576129b5612681565b5b92915050565b7f4e487b7100000000000000000000000000000000000000000000000000000000600052601260045260246000fdfea26469706673582212204f2f9ac745ed6411f73be89b315a23be5a904703a697aa301747a9e96dd647d664736f6c63430008110033",
  "linkReferences": {},
  "deployedLinkReferences": {}
}